:100000000C9434000C9449000C9449000C94490061
:100010000C9449000C9449000C9449000C9449003C
:100020000C9449000C9449000C9449000C9449002C
:100030000C9449000C9449000C9449000C9449001C
:100040000C9449000C9449000C9449000C9449000C
:100050000C9449000C9449000C9449000C944900FC
:100060000C9449000C94490011241FBECFEFD8E036
:10007000DEBFCDBF11E0A0E0B1E0EAE5F1E002C0F3
:1000800005900D92A431B107D9F70E9472000C942B
:10009000AB000C9400002091C100283069F0109250
:1000A000C50027E62093C4001092C00028E02093EA
:1000B000C10026E02093C200FC018191882339F021
:1000C0009091C00095FFFCCF8093C600F6CF0895B5
:1000D0008093BB0084E88093BC008091BC0087FFC4
:1000E000FCCF08958FEF84B917E404E0C4EA84E8F4
:1000F000F82ED4E91092B9001093B8000093BC0018
:10010000C093BC008091BC0087FFFCCF8AE90E94AD
:10011000680082E00E946800C093BC008091BC002F
:1001200087FFFCCF8BE90E946800F092BC008091B1
:10013000BC0087FFFCCF8091BB008E3140F02D9A30
:1001400080E091E00E944B00D093BC00D3CF2D986B
:0A0150008CE091E0F7CFF894FFCFA8
:10015A002044414E47455221212120002053414647
:04016A00452000002C
:00000001FF
